{
  "_format": "hh-sol-artifact-1",
  "contractName": "TestERC20",
  "sourceName": "contracts/test/TestERC20.sol",
  "abi": [
    {
      "inputs": [
        {
          "internalType": "string",
          "name": "name",
          "type": "string"
        },
        {
          "internalType": "string",
          "name": "symbol",
          "type": "string"
        }
      ],
      "stateMutability": "nonpayable",
      "type": "constructor"
    },
    {
      "anonymous": false,
      "inputs": [
        {
          "indexed": true,
          "internalType": "address",
          "name": "owner",
          "type": "address"
        },
        {
          "indexed": true,
          "internalType": "address",
          "name": "spender",
          "type": "address"
        },
        {
          "indexed": false,
          "internalType": "uint256",
          "name": "value",
          "type": "uint256"
        }
      ],
      "name": "Approval",
      "type": "event"
    },
    {
      "anonymous": false,
      "inputs": [
        {
          "indexed": false,
          "internalType": "address",
          "name": "account",
          "type": "address"
        }
      ],
      "name": "Paused",
      "type": "event"
    },
    {
      "anonymous": false,
      "inputs": [
        {
          "indexed": true,
          "internalType": "bytes32",
          "name": "role",
          "type": "bytes32"
        },
        {
          "indexed": true,
          "internalType": "bytes32",
          "name": "previousAdminRole",
          "type": "bytes32"
        },
        {
          "indexed": true,
          "internalType": "bytes32",
          "name": "newAdminRole",
          "type": "bytes32"
        }
      ],
      "name": "RoleAdminChanged",
      "type": "event"
    },
    {
      "anonymous": false,
      "inputs": [
        {
          "indexed": true,
          "internalType": "bytes32",
          "name": "role",
          "type": "bytes32"
        },
        {
          "indexed": true,
          "internalType": "address",
          "name": "account",
          "type": "address"
        },
        {
          "indexed": true,
          "internalType": "address",
          "name": "sender",
          "type": "address"
        }
      ],
      "name": "RoleGranted",
      "type": "event"
    },
    {
      "anonymous": false,
      "inputs": [
        {
          "indexed": true,
          "internalType": "bytes32",
          "name": "role",
          "type": "bytes32"
        },
        {
          "indexed": true,
          "internalType": "address",
          "name": "account",
          "type": "address"
        },
        {
          "indexed": true,
          "internalType": "address",
          "name": "sender",
          "type": "address"
        }
      ],
      "name": "RoleRevoked",
      "type": "event"
    },
    {
      "anonymous": false,
      "inputs": [
        {
          "indexed": true,
          "internalType": "address",
          "name": "from",
          "type": "address"
        },
        {
          "indexed": true,
          "internalType": "address",
          "name": "to",
          "type": "address"
        },
        {
          "indexed": false,
          "internalType": "uint256",
          "name": "value",
          "type": "uint256"
        }
      ],
      "name": "Transfer",
      "type": "event"
    },
    {
      "anonymous": false,
      "inputs": [
        {
          "indexed": false,
          "internalType": "address",
          "name": "account",
          "type": "address"
        }
      ],
      "name": "Unpaused",
      "type": "event"
    },
    {
      "inputs": [],
      "name": "DEFAULT_ADMIN_ROLE",
      "outputs": [
        {
          "internalType": "bytes32",
          "name": "",
          "type": "bytes32"
        }
      ],
      "stateMutability": "view",
      "type": "function"
    },
    {
      "inputs": [],
      "name": "MINTER_ROLE",
      "outputs": [
        {
          "internalType": "bytes32",
          "name": "",
          "type": "bytes32"
        }
      ],
      "stateMutability": "view",
      "type": "function"
    },
    {
      "inputs": [],
      "name": "PAUSER_ROLE",
      "outputs": [
        {
          "internalType": "bytes32",
          "name": "",
          "type": "bytes32"
        }
      ],
      "stateMutability": "view",
      "type": "function"
    },
    {
      "inputs": [
        {
          "internalType": "address",
          "name": "owner",
          "type": "address"
        },
        {
          "internalType": "address",
          "name": "spender",
          "type": "address"
        }
      ],
      "name": "allowance",
      "outputs": [
        {
          "internalType": "uint256",
          "name": "",
          "type": "uint256"
        }
      ],
      "stateMutability": "view",
      "type": "function"
    },
    {
      "inputs": [
        {
          "internalType": "address",
          "name": "spender",
          "type": "address"
        },
        {
          "internalType": "uint256",
          "name": "amount",
          "type": "uint256"
        }
      ],
      "name": "approve",
      "outputs": [
        {
          "internalType": "bool",
          "name": "",
          "type": "bool"
        }
      ],
      "stateMutability": "nonpayable",
      "type": "function"
    },
    {
      "inputs": [
        {
          "internalType": "address",
          "name": "account",
          "type": "address"
        }
      ],
      "name": "balanceOf",
      "outputs": [
        {
          "internalType": "uint256",
          "name": "",
          "type": "uint256"
        }
      ],
      "stateMutability": "view",
      "type": "function"
    },
    {
      "inputs": [
        {
          "internalType": "uint256",
          "name": "amount",
          "type": "uint256"
        }
      ],
      "name": "burn",
      "outputs": [],
      "stateMutability": "nonpayable",
      "type": "function"
    },
    {
      "inputs": [
        {
          "internalType": "address",
          "name": "account",
          "type": "address"
        },
        {
          "internalType": "uint256",
          "name": "amount",
          "type": "uint256"
        }
      ],
      "name": "burnFrom",
      "outputs": [],
      "stateMutability": "nonpayable",
      "type": "function"
    },
    {
      "inputs": [],
      "name": "decimals",
      "outputs": [
        {
          "internalType": "uint8",
          "name": "",
          "type": "uint8"
        }
      ],
      "stateMutability": "view",
      "type": "function"
    },
    {
      "inputs": [
        {
          "internalType": "address",
          "name": "spender",
          "type": "address"
        },
        {
          "internalType": "uint256",
          "name": "subtractedValue",
          "type": "uint256"
        }
      ],
      "name": "decreaseAllowance",
      "outputs": [
        {
          "internalType": "bool",
          "name": "",
          "type": "bool"
        }
      ],
      "stateMutability": "nonpayable",
      "type": "function"
    },
    {
      "inputs": [
        {
          "internalType": "bytes32",
          "name": "role",
          "type": "bytes32"
        }
      ],
      "name": "getRoleAdmin",
      "outputs": [
        {
          "internalType": "bytes32",
          "name": "",
          "type": "bytes32"
        }
      ],
      "stateMutability": "view",
      "type": "function"
    },
    {
      "inputs": [
        {
          "internalType": "bytes32",
          "name": "role",
          "type": "bytes32"
        },
        {
          "internalType": "uint256",
          "name": "index",
          "type": "uint256"
        }
      ],
      "name": "getRoleMember",
      "outputs": [
        {
          "internalType": "address",
          "name": "",
          "type": "address"
        }
      ],
      "stateMutability": "view",
      "type": "function"
    },
    {
      "inputs": [
        {
          "internalType": "bytes32",
          "name": "role",
          "type": "bytes32"
        }
      ],
      "name": "getRoleMemberCount",
      "outputs": [
        {
          "internalType": "uint256",
          "name": "",
          "type": "uint256"
        }
      ],
      "stateMutability": "view",
      "type": "function"
    },
    {
      "inputs": [
        {
          "internalType": "bytes32",
          "name": "role",
          "type": "bytes32"
        },
        {
          "internalType": "address",
          "name": "account",
          "type": "address"
        }
      ],
      "name": "grantRole",
      "outputs": [],
      "stateMutability": "nonpayable",
      "type": "function"
    },
    {
      "inputs": [
        {
          "internalType": "bytes32",
          "name": "role",
          "type": "bytes32"
        },
        {
          "internalType": "address",
          "name": "account",
          "type": "address"
        }
      ],
      "name": "hasRole",
      "outputs": [
        {
          "internalType": "bool",
          "name": "",
          "type": "bool"
        }
      ],
      "stateMutability": "view",
      "type": "function"
    },
    {
      "inputs": [
        {
          "internalType": "address",
          "name": "spender",
          "type": "address"
        },
        {
          "internalType": "uint256",
          "name": "addedValue",
          "type": "uint256"
        }
      ],
      "name": "increaseAllowance",
      "outputs": [
        {
          "internalType": "bool",
          "name": "",
          "type": "bool"
        }
      ],
      "stateMutability": "nonpayable",
      "type": "function"
    },
    {
      "inputs": [
        {
          "internalType": "address",
          "name": "to",
          "type": "address"
        },
        {
          "internalType": "uint256",
          "name": "amount",
          "type": "uint256"
        }
      ],
      "name": "mint",
      "outputs": [],
      "stateMutability": "nonpayable",
      "type": "function"
    },
    {
      "inputs": [],
      "name": "name",
      "outputs": [
        {
          "internalType": "string",
          "name": "",
          "type": "string"
        }
      ],
      "stateMutability": "view",
      "type": "function"
    },
    {
      "inputs": [],
      "name": "pause",
      "outputs": [],
      "stateMutability": "nonpayable",
      "type": "function"
    },
    {
      "inputs": [],
      "name": "paused",
      "outputs": [
        {
          "internalType": "bool",
          "name": "",
          "type": "bool"
        }
      ],
      "stateMutability": "view",
      "type": "function"
    },
    {
      "inputs": [
        {
          "internalType": "bytes32",
          "name": "role",
          "type": "bytes32"
        },
        {
          "internalType": "address",
          "name": "account",
          "type": "address"
        }
      ],
      "name": "renounceRole",
      "outputs": [],
      "stateMutability": "nonpayable",
      "type": "function"
    },
    {
      "inputs": [
        {
          "internalType": "bytes32",
          "name": "role",
          "type": "bytes32"
        },
        {
          "internalType": "address",
          "name": "account",
          "type": "address"
        }
      ],
      "name": "revokeRole",
      "outputs": [],
      "stateMutability": "nonpayable",
      "type": "function"
    },
    {
      "inputs": [
        {
          "internalType": "address",
          "name": "minter",
          "type": "address"
        }
      ],
      "name": "setMinter",
      "outputs": [],
      "stateMutability": "nonpayable",
      "type": "function"
    },
    {
      "inputs": [],
      "name": "symbol",
      "outputs": [
        {
          "internalType": "string",
          "name": "",
          "type": "string"
        }
      ],
      "stateMutability": "view",
      "type": "function"
    },
    {
      "inputs": [],
      "name": "totalSupply",
      "outputs": [
        {
          "internalType": "uint256",
          "name": "",
          "type": "uint256"
        }
      ],
      "stateMutability": "view",
      "type": "function"
    },
    {
      "inputs": [
        {
          "internalType": "address",
          "name": "recipient",
          "type": "address"
        },
        {
          "internalType": "uint256",
          "name": "amount",
          "type": "uint256"
        }
      ],
      "name": "transfer",
      "outputs": [
        {
          "internalType": "bool",
          "name": "",
          "type": "bool"
        }
      ],
      "stateMutability": "nonpayable",
      "type": "function"
    },
    {
      "inputs": [
        {
          "internalType": "address",
          "name": "sender",
          "type": "address"
        },
        {
          "internalType": "address",
          "name": "recipient",
          "type": "address"
        },
        {
          "internalType": "uint256",
          "name": "amount",
          "type": "uint256"
        }
      ],
      "name": "transferFrom",
      "outputs": [
        {
          "internalType": "bool",
          "name": "",
          "type": "bool"
        }
      ],
      "stateMutability": "nonpayable",
      "type": "function"
    },
    {
      "inputs": [],
      "name": "unpause",
      "outputs": [],
      "stateMutability": "nonpayable",
      "type": "function"
    }
  ],
  "bytecode": "0x60806040523480156200001157600080fd5b5060405162001d6738038062001d67833981810160405260408110156200003757600080fd5b81019080805160405193929190846401000000008211156200005857600080fd5b9083019060208201858111156200006e57600080fd5b82516401000000008111828201881017156200008957600080fd5b82525081516020918201929091019080838360005b83811015620000b85781810151838201526020016200009e565b50505050905090810190601f168015620000e65780820380516001836020036101000a031916815260200191505b50604052602001805160405193929190846401000000008211156200010a57600080fd5b9083019060208201858111156200012057600080fd5b82516401000000008111828201881017156200013b57600080fd5b82525081516020918201929091019080838360005b838110156200016a57818101518382015260200162000150565b50505050905090810190601f168015620001985780820380516001836020036101000a031916815260200191505b50604052505050818181818160049080519060200190620001bb9291906200037a565b508051620001d19060059060208401906200037a565b50506006805461ff001960ff1990911660121716905550620001fe6000620001f862000266565b6200026a565b6200022d7f9f2df0fed2c77648de5860a4cc508cd0818c85b8b8a1ab4ceeef8d981c8956a6620001f862000266565b6200025c7f65d7a28e3265b37a6474929f336521b332c1681b933f6cb9f3376673440d862a620001f862000266565b5050505062000426565b3390565b6200027682826200027a565b5050565b6000828152602081815260409091206200029f91839062000c52620002f3821b17901c565b156200027657620002af62000266565b6001600160a01b0316816001600160a01b0316837f2f8788117e7eff1d82e926ec794901d17c78024a50270940304540a733656f0d60405160405180910390a45050565b60006200030a836001600160a01b03841662000313565b90505b92915050565b600062000321838362000362565b62000359575081546001818101845560008481526020808220909301849055845484825282860190935260409020919091556200030d565b5060006200030d565b60009081526001919091016020526040902054151590565b828054600181600116156101000203166002900490600052602060002090601f016020900481019282620003b25760008555620003fd565b82601f10620003cd57805160ff1916838001178555620003fd565b82800160010185558215620003fd579182015b82811115620003fd578251825591602001919060010190620003e0565b506200040b9291506200040f565b5090565b5b808211156200040b576000815560010162000410565b61193180620004366000396000f3fe608060405234801561001057600080fd5b50600436106101c45760003560e01c806379cc6790116100f9578063a9059cbb11610097578063d547741f11610071578063d547741f14610542578063dd62ed3e1461056e578063e63ab1e91461059c578063fca3b5aa146105a4576101c4565b8063a9059cbb146104f1578063ca15c8731461051d578063d53913931461053a576101c4565b806391d14854116100d357806391d148541461048957806395d89b41146104b5578063a217fddf146104bd578063a457c2d7146104c5576101c4565b806379cc6790146104165780638456cb59146104425780639010d07c1461044a576101c4565b806336568abe1161016657806340c10f191161014057806340c10f191461039f57806342966c68146103cb5780635c975abb146103e857806370a08231146103f0576101c4565b806336568abe1461033f578063395093511461036b5780633f4ba83a14610397576101c4565b806323b872dd116101a257806323b872dd146102a0578063248a9ca3146102d65780632f2ff15d146102f3578063313ce56714610321576101c4565b806306fdde03146101c9578063095ea7b31461024657806318160ddd14610286575b600080fd5b6101d16105ca565b6040805160208082528351818301528351919283929083019185019080838360005b8381101561020b5781810151838201526020016101f3565b50505050905090810190601f1680156102385780820380516001836020036101000a031916815260200191505b509250505060405180910390f35b6102726004803603604081101561025c57600080fd5b506001600160a01b038135169060200135610660565b604080519115158252519081900360200190f35b61028e61067e565b60408051918252519081900360200190f35b610272600480360360608110156102b657600080fd5b506001600160a01b03813581169160208101359091169060400135610684565b61028e600480360360208110156102ec57600080fd5b503561070b565b61031f6004803603604081101561030957600080fd5b50803590602001356001600160a01b0316610720565b005b61032961078c565b6040805160ff9092168252519081900360200190f35b61031f6004803603604081101561035557600080fd5b50803590602001356001600160a01b0316610795565b6102726004803603604081101561038157600080fd5b506001600160a01b0381351690602001356107f6565b61031f610844565b61031f600480360360408110156103b557600080fd5b506001600160a01b0381351690602001356108b5565b61031f600480360360208110156103e157600080fd5b5035610926565b61027261093a565b61028e6004803603602081101561040657600080fd5b50356001600160a01b0316610948565b61031f6004803603604081101561042c57600080fd5b506001600160a01b038135169060200135610963565b61031f6109bd565b61046d6004803603604081101561046057600080fd5b5080359060200135610a2c565b604080516001600160a01b039092168252519081900360200190f35b6102726004803603604081101561049f57600080fd5b50803590602001356001600160a01b0316610a4b565b6101d1610a63565b61028e610ac4565b610272600480360360408110156104db57600080fd5b506001600160a01b038135169060200135610ac9565b6102726004803603604081101561050757600080fd5b506001600160a01b038135169060200135610b31565b61028e6004803603602081101561053357600080fd5b5035610b45565b61028e610b5c565b61031f6004803603604081101561055857600080fd5b50803590602001356001600160a01b0316610b80565b61028e6004803603604081101561058457600080fd5b506001600160a01b0381358116916020013516610bd9565b61028e610c04565b61031f600480360360208110156105ba57600080fd5b50356001600160a01b0316610c28565b60048054604080516020601f60026000196101006001881615020190951694909404938401819004810282018101909252828152606093909290918301828280156106565780601f1061062b57610100808354040283529160200191610656565b820191906000526020600020905b81548152906001019060200180831161063957829003601f168201915b5050505050905090565b600061067461066d610c67565b8484610c6b565b5060015b92915050565b60035490565b6000610691848484610d57565b6107018461069d610c67565b6106fc8560405180606001604052806028815260200161175b602891396001600160a01b038a166000908152600260205260408120906106db610c67565b6001600160a01b031681526020810191909152604001600020549190610eb4565b610c6b565b5060019392505050565b60009081526020819052604090206002015490565b6000828152602081905260409020600201546107439061073e610c67565b610a4b565b61077e5760405162461bcd60e51b815260040180806020018281038252602f815260200180611659602f913960400191505060405180910390fd5b6107888282610f4b565b5050565b60065460ff1690565b61079d610c67565b6001600160a01b0316816001600160a01b0316146107ec5760405162461bcd60e51b815260040180806020018281038252602f8152602001806118a3602f913960400191505060405180910390fd5b6107888282610fb4565b6000610674610803610c67565b846106fc8560026000610814610c67565b6001600160a01b03908116825260208083019390935260409182016000908120918c16815292529020549061101d565b6108707f65d7a28e3265b37a6474929f336521b332c1681b933f6cb9f3376673440d862a61073e610c67565b6108ab5760405162461bcd60e51b81526004018080602001828103825260398152602001806116aa6039913960400191505060405180910390fd5b6108b3611077565b565b6108e17f9f2df0fed2c77648de5860a4cc508cd0818c85b8b8a1ab4ceeef8d981c8956a661073e610c67565b61091c5760405162461bcd60e51b81526004018080602001828103825260368152602001806117836036913960400191505060405180910390fd5b6107888282611118565b610937610931610c67565b8261120a565b50565b600654610100900460ff1690565b6001600160a01b031660009081526001602052604090205490565b600061099a826040518060600160405280602481526020016117b9602491396109938661098e610c67565b610bd9565b9190610eb4565b90506109ae836109a8610c67565b83610c6b565b6109b8838361120a565b505050565b6109e97f65d7a28e3265b37a6474929f336521b332c1681b933f6cb9f3376673440d862a61073e610c67565b610a245760405162461bcd60e51b81526004018080602001828103825260378152602001806118476037913960400191505060405180910390fd5b6108b3611306565b6000828152602081905260408120610a44908361138b565b9392505050565b6000828152602081905260408120610a449083611397565b60058054604080516020601f60026000196101006001881615020190951694909404938401819004810282018101909252828152606093909290918301828280156106565780601f1061062b57610100808354040283529160200191610656565b600081565b6000610674610ad6610c67565b846106fc8560405180606001604052806025815260200161187e6025913960026000610b00610c67565b6001600160a01b03908116825260208083019390935260409182016000908120918d16815292529020549190610eb4565b6000610674610b3e610c67565b8484610d57565b6000818152602081905260408120610678906113ac565b7f9f2df0fed2c77648de5860a4cc508cd0818c85b8b8a1ab4ceeef8d981c8956a681565b600082815260208190526040902060020154610b9e9061073e610c67565b6107ec5760405162461bcd60e51b815260040180806020018281038252603081526020018061172b6030913960400191505060405180910390fd5b6001600160a01b03918216600090815260026020908152604080832093909416825291909152205490565b7f65d7a28e3265b37a6474929f336521b332c1681b933f6cb9f3376673440d862a81565b6109377f9f2df0fed2c77648de5860a4cc508cd0818c85b8b8a1ab4ceeef8d981c8956a682610720565b6000610a44836001600160a01b0384166113b7565b3390565b6001600160a01b038316610cb05760405162461bcd60e51b81526004018080602001828103825260248152602001806118236024913960400191505060405180910390fd5b6001600160a01b038216610cf55760405162461bcd60e51b81526004018080602001828103825260228152602001806116e36022913960400191505060405180910390fd5b6001600160a01b03808416600081815260026020908152604080832094871680845294825291829020859055815185815291517f8c5be1e5ebec7d5bd14f71427d1e84f3dd0314c0f7b2291e5b200ac8c7c3b9259281900390910190a3505050565b6001600160a01b038316610d9c5760405162461bcd60e51b81526004018080602001828103825260258152602001806117fe6025913960400191505060405180910390fd5b6001600160a01b038216610de15760405162461bcd60e51b81526004018080602001828103825260238152602001806116366023913960400191505060405180910390fd5b610dec838383611401565b610e2981604051806060016040528060268152602001611705602691396001600160a01b0386166000908152600160205260409020549190610eb4565b6001600160a01b038085166000908152600160205260408082209390935590841681522054610e58908261101d565b6001600160a01b0380841660008181526001602090815260409182902094909455805185815290519193928716927fddf252ad1be2c89b69c2b068fc378daa952ba7f163c4a11628f55a4df523b3ef92918290030190a3505050565b60008184841115610f435760405162461bcd60e51b81526004018080602001828103825283818151815260200191508051906020019080838360005b83811015610f08578181015183820152602001610ef0565b50505050905090810190601f168015610f355780820380516001836020036101000a031916815260200191505b509250505060405180910390fd5b505050900390565b6000828152602081905260409020610f639082610c52565b1561078857610f70610c67565b6001600160a01b0316816001600160a01b0316837f2f8788117e7eff1d82e926ec794901d17c78024a50270940304540a733656f0d60405160405180910390a45050565b6000828152602081905260409020610fcc908261140c565b1561078857610fd9610c67565b6001600160a01b0316816001600160a01b0316837ff6391f5c32d9c69d2a47ea670b442974b53935d1edc7fd64eb21e047a839171b60405160405180910390a45050565b600082820183811015610a44576040805162461bcd60e51b815260206004820152601b60248201527f536166654d6174683a206164646974696f6e206f766572666c6f770000000000604482015290519081900360640190fd5b61107f61093a565b6110c7576040805162461bcd60e51b815260206004820152601460248201527314185d5cd8589b194e881b9bdd081c185d5cd95960621b604482015290519081900360640190fd5b6006805461ff00191690557f5db9ee0a495bf2e6ff9c91a7834c1ba4fdd244a5e8aa4e537bd38aeae4b073aa6110fb610c67565b604080516001600160a01b039092168252519081900360200190a1565b6001600160a01b038216611173576040805162461bcd60e51b815260206004820152601f60248201527f45524332303a206d696e7420746f20746865207a65726f206164647265737300604482015290519081900360640190fd5b61117f60008383611401565b60035461118c908261101d565b6003556001600160a01b0382166000908152600160205260409020546111b2908261101d565b6001600160a01b03831660008181526001602090815260408083209490945583518581529351929391927fddf252ad1be2c89b69c2b068fc378daa952ba7f163c4a11628f55a4df523b3ef9281900390910190a35050565b6001600160a01b03821661124f5760405162461bcd60e51b81526004018080602001828103825260218152602001806117dd6021913960400191505060405180910390fd5b61125b82600083611401565b61129881604051806060016040528060228152602001611688602291396001600160a01b0385166000908152600160205260409020549190610eb4565b6001600160a01b0383166000908152600160205260409020556003546112be9082611421565b6003556040805182815290516000916001600160a01b038516917fddf252ad1be2c89b69c2b068fc378daa952ba7f163c4a11628f55a4df523b3ef9181900360200190a35050565b61130e61093a565b15611353576040805162461bcd60e51b815260206004820152601060248201526f14185d5cd8589b194e881c185d5cd95960821b604482015290519081900360640190fd5b6006805461ff0019166101001790557f62e78cea01bee320cd4e420270b5ea74000d11b0c9f74754ebdbfc544b05a2586110fb610c67565b6000610a44838361147e565b6000610a44836001600160a01b0384166114e2565b6000610678826114fa565b60006113c383836114e2565b6113f957508154600181810184556000848152602080822090930184905584548482528286019093526040902091909155610678565b506000610678565b6109b88383836114fe565b6000610a44836001600160a01b03841661154d565b600082821115611478576040805162461bcd60e51b815260206004820152601e60248201527f536166654d6174683a207375627472616374696f6e206f766572666c6f770000604482015290519081900360640190fd5b50900390565b815460009082106114c05760405162461bcd60e51b81526004018080602001828103825260228152602001806116146022913960400191505060405180910390fd5b8260000182815481106114cf57fe5b9060005260206000200154905092915050565b60009081526001919091016020526040902054151590565b5490565b6115098383836109b8565b61151161093a565b156109b85760405162461bcd60e51b815260040180806020018281038252602a8152602001806118d2602a913960400191505060405180910390fd5b60008181526001830160205260408120548015611609578354600019808301919081019060009087908390811061158057fe5b906000526020600020015490508087600001848154811061159d57fe5b6000918252602080832090910192909255828152600189810190925260409020908401905586548790806115cd57fe5b60019003818190600052602060002001600090559055866001016000878152602001908152602001600020600090556001945050505050610678565b600091505061067856fe456e756d657261626c655365743a20696e646578206f7574206f6620626f756e647345524332303a207472616e7366657220746f20746865207a65726f2061646472657373416363657373436f6e74726f6c3a2073656e646572206d75737420626520616e2061646d696e20746f206772616e7445524332303a206275726e20616d6f756e7420657863656564732062616c616e636545524332305072657365744d696e7465725061757365723a206d75737420686176652070617573657220726f6c6520746f20756e706175736545524332303a20617070726f766520746f20746865207a65726f206164647265737345524332303a207472616e7366657220616d6f756e7420657863656564732062616c616e6365416363657373436f6e74726f6c3a2073656e646572206d75737420626520616e2061646d696e20746f207265766f6b6545524332303a207472616e7366657220616d6f756e74206578636565647320616c6c6f77616e636545524332305072657365744d696e7465725061757365723a206d7573742068617665206d696e74657220726f6c6520746f206d696e7445524332303a206275726e20616d6f756e74206578636565647320616c6c6f77616e636545524332303a206275726e2066726f6d20746865207a65726f206164647265737345524332303a207472616e736665722066726f6d20746865207a65726f206164647265737345524332303a20617070726f76652066726f6d20746865207a65726f206164647265737345524332305072657365744d696e7465725061757365723a206d75737420686176652070617573657220726f6c6520746f20706175736545524332303a2064656372656173656420616c6c6f77616e63652062656c6f77207a65726f416363657373436f6e74726f6c3a2063616e206f6e6c792072656e6f756e636520726f6c657320666f722073656c6645524332305061757361626c653a20746f6b656e207472616e73666572207768696c6520706175736564a2646970667358221220c0bf0b8785fff5291060d01c90d7827ce94ca599bf5dc258ded43f40c774168f64736f6c63430007060033",
  "linkReferences": {},
  "deployedLinkReferences": {}
}